{
  "_format": "hh-sol-artifact-1",
  "contractName": "SocialBlock",
  "sourceName": "contracts/SocialBlock.sol",
  "abi": [
    {
      "anonymous": false,
      "inputs": [
        {
          "indexed": true,
          "internalType": "uint256",
          "name": "postId",
          "type": "uint256"
        },
        {
          "indexed": true,
          "internalType": "address",
          "name": "author",
          "type": "address"
        },
        {
          "indexed": false,
          "internalType": "string",
          "name": "contentCid",
          "type": "string"
        }
      ],
      "name": "PostCreated",
      "type": "event"
    },
    {
      "anonymous": false,
      "inputs": [
        {
          "indexed": true,
          "internalType": "uint256",
          "name": "postId",
          "type": "uint256"
        },
        {
          "indexed": true,
          "internalType": "address",
          "name": "liker",
          "type": "address"
        }
      ],
      "name": "PostLiked",
      "type": "event"
    },
    {
      "anonymous": false,
      "inputs": [
        {
          "indexed": true,
          "internalType": "uint256",
          "name": "postId",
          "type": "uint256"
        },
        {
          "indexed": true,
          "internalType": "address",
          "name": "unliker",
          "type": "address"
        }
      ],
      "name": "PostUnliked",
      "type": "event"
    },
    {
      "anonymous": false,
      "inputs": [
        {
          "indexed": true,
          "internalType": "address",
          "name": "follower",
          "type": "address"
        },
        {
          "indexed": true,
          "internalType": "address",
          "name": "followed",
          "type": "address"
        }
      ],
      "name": "UserFollowed",
      "type": "event"
    },
    {
      "anonymous": false,
      "inputs": [
        {
          "indexed": true,
          "internalType": "address",
          "name": "userAddress",
          "type": "address"
        },
        {
          "indexed": false,
          "internalType": "string",
          "name": "username",
          "type": "string"
        }
      ],
      "name": "UserRegistered",
      "type": "event"
    },
    {
      "anonymous": false,
      "inputs": [
        {
          "indexed": true,
          "internalType": "address",
          "name": "follower",
          "type": "address"
        },
        {
          "indexed": true,
          "internalType": "address",
          "name": "unfollowed",
          "type": "address"
        }
      ],
      "name": "UserUnfollowed",
      "type": "event"
    },
    {
      "inputs": [
        {
          "internalType": "string",
          "name": "_contentCid",
          "type": "string"
        }
      ],
      "name": "createPost",
      "outputs": [],
      "stateMutability": "nonpayable",
      "type": "function"
    },
    {
      "inputs": [
        {
          "internalType": "address",
          "name": "_userToFollow",
          "type": "address"
        }
      ],
      "name": "followUser",
      "outputs": [],
      "stateMutability": "nonpayable",
      "type": "function"
    },
    {
      "inputs": [
        {
          "internalType": "address",
          "name": "",
          "type": "address"
        }
      ],
      "name": "followerCount",
      "outputs": [
        {
          "internalType": "uint256",
          "name": "",
          "type": "uint256"
        }
      ],
      "stateMutability": "view",
      "type": "function"
    },
    {
      "inputs": [
        {
          "internalType": "address",
          "name": "",
          "type": "address"
        },
        {
          "internalType": "address",
          "name": "",
          "type": "address"
        }
      ],
      "name": "following",
      "outputs": [
        {
          "internalType": "bool",
          "name": "",
          "type": "bool"
        }
      ],
      "stateMutability": "view",
      "type": "function"
    },
    {
      "inputs": [
        {
          "internalType": "address",
          "name": "",
          "type": "address"
        }
      ],
      "name": "followingCount",
      "outputs": [
        {
          "internalType": "uint256",
          "name": "",
          "type": "uint256"
        }
      ],
      "stateMutability": "view",
      "type": "function"
    },
    {
      "inputs": [
        {
          "internalType": "uint256",
          "name": "_count",
          "type": "uint256"
        },
        {
          "internalType": "uint256",
          "name": "_offset",
          "type": "uint256"
        }
      ],
      "name": "getRecentPosts",
      "outputs": [
        {
          "components": [
            {
              "internalType": "uint256",
              "name": "id",
              "type": "uint256"
            },
            {
              "internalType": "address",
              "name": "author",
              "type": "address"
            },
            {
              "internalType": "string",
              "name": "contentCid",
              "type": "string"
            },
            {
              "internalType": "uint256",
              "name": "timestamp",
              "type": "uint256"
            },
            {
              "internalType": "uint256",
              "name": "likesCount",
              "type": "uint256"
            }
          ],
          "internalType": "struct SocialBlock.Post[]",
          "name": "",
          "type": "tuple[]"
        }
      ],
      "stateMutability": "view",
      "type": "function"
    },
    {
      "inputs": [
        {
          "internalType": "address",
          "name": "_user",
          "type": "address"
        }
      ],
      "name": "getUserPosts",
      "outputs": [
        {
          "internalType": "uint256[]",
          "name": "",
          "type": "uint256[]"
        }
      ],
      "stateMutability": "view",
      "type": "function"
    },
    {
      "inputs": [
        {
          "internalType": "uint256",
          "name": "_postId",
          "type": "uint256"
        }
      ],
      "name": "likePost",
      "outputs": [],
      "stateMutability": "nonpayable",
      "type": "function"
    },
    {
      "inputs": [],
      "name": "postCount",
      "outputs": [
        {
          "internalType": "uint256",
          "name": "",
          "type": "uint256"
        }
      ],
      "stateMutability": "view",
      "type": "function"
    },
    {
      "inputs": [
        {
          "internalType": "uint256",
          "name": "",
          "type": "uint256"
        },
        {
          "internalType": "address",
          "name": "",
          "type": "address"
        }
      ],
      "name": "postLikes",
      "outputs": [
        {
          "internalType": "bool",
          "name": "",
          "type": "bool"
        }
      ],
      "stateMutability": "view",
      "type": "function"
    },
    {
      "inputs": [
        {
          "internalType": "uint256",
          "name": "",
          "type": "uint256"
        }
      ],
      "name": "posts",
      "outputs": [
        {
          "internalType": "uint256",
          "name": "id",
          "type": "uint256"
        },
        {
          "internalType": "address",
          "name": "author",
          "type": "address"
        },
        {
          "internalType": "string",
          "name": "contentCid",
          "type": "string"
        },
        {
          "internalType": "uint256",
          "name": "timestamp",
          "type": "uint256"
        },
        {
          "internalType": "uint256",
          "name": "likesCount",
          "type": "uint256"
        }
      ],
      "stateMutability": "view",
      "type": "function"
    },
    {
      "inputs": [
        {
          "internalType": "string",
          "name": "_username",
          "type": "string"
        },
        {
          "internalType": "string",
          "name": "_avatarCid",
          "type": "string"
        },
        {
          "internalType": "string",
          "name": "_bio",
          "type": "string"
        }
      ],
      "name": "registerUser",
      "outputs": [],
      "stateMutability": "nonpayable",
      "type": "function"
    },
    {
      "inputs": [
        {
          "internalType": "address",
          "name": "_userToUnfollow",
          "type": "address"
        }
      ],
      "name": "unfollowUser",
      "outputs": [],
      "stateMutability": "nonpayable",
      "type": "function"
    },
    {
      "inputs": [
        {
          "internalType": "uint256",
          "name": "_postId",
          "type": "uint256"
        }
      ],
      "name": "unlikePost",
      "outputs": [],
      "stateMutability": "nonpayable",
      "type": "function"
    },
    {
      "inputs": [
        {
          "internalType": "address",
          "name": "",
          "type": "address"
        },
        {
          "internalType": "uint256",
          "name": "",
          "type": "uint256"
        }
      ],
      "name": "userPosts",
      "outputs": [
        {
          "internalType": "uint256",
          "name": "",
          "type": "uint256"
        }
      ],
      "stateMutability": "view",
      "type": "function"
    },
    {
      "inputs": [
        {
          "internalType": "address",
          "name": "",
          "type": "address"
        }
      ],
      "name": "users",
      "outputs": [
        {
          "internalType": "string",
          "name": "username",
          "type": "string"
        },
        {
          "internalType": "string",
          "name": "avatarCid",
          "type": "string"
        },
        {
          "internalType": "string",
          "name": "bio",
          "type": "string"
        },
        {
          "internalType": "bool",
          "name": "isRegistered",
          "type": "bool"
        }
      ],
      "stateMutability": "view",
      "type": "function"
    }
  ],
  "bytecode": "0x608060405260008055348015601357600080fd5b50612b3c806100236000396000f3fe608060405234801561001057600080fd5b50600436106101005760003560e01c8063a70806f711610097578063ce9ae00111610066578063ce9ae001146102fe578063d637dcfa1461032e578063f107cfcb1461034a578063fa188de91461036657610100565b8063a70806f714610263578063a87430ba1461027f578063c7303c61146102b2578063ca1f0cad146102ce57610100565b806364548707116100d357806364548707146101b7578063725009d3146101e75780638064d149146102035780639a2194a91461023357610100565b80630b1e7f831461010557806317906c2e1461013957806330b3a890146101575780634025681a14610187575b600080fd5b61011f600480360381019061011a9190611aa8565b610382565b604051610130959493929190611bb5565b60405180910390f35b610141610460565b60405161014e9190611c0f565b60405180910390f35b610171600480360381019061016c9190611c56565b610466565b60405161017e9190611c0f565b60405180910390f35b6101a1600480360381019061019c9190611c83565b61047e565b6040516101ae9190611e63565b60405180910390f35b6101d160048036038101906101cc9190611c56565b6106dc565b6040516101de9190611c0f565b60405180910390f35b61020160048036038101906101fc9190611aa8565b6106f4565b005b61021d60048036038101906102189190611e85565b61094e565b60405161022a9190611c0f565b60405180910390f35b61024d60048036038101906102489190611c56565b61097f565b60405161025a9190611f74565b60405180910390f35b61027d60048036038101906102789190611c56565b610a16565b005b61029960048036038101906102949190611c56565b610e08565b6040516102a99493929190611fb1565b60405180910390f35b6102cc60048036038101906102c79190612140565b610fdd565b005b6102e860048036038101906102e39190612189565b611211565b6040516102f591906121c9565b60405180910390f35b610318600480360381019061031391906121e4565b611240565b60405161032591906121c9565b60405180910390f35b61034860048036038101906103439190612224565b61126f565b005b610364600480360381019061035f9190611c56565b61141a565b005b610380600480360381019061037b9190611aa8565b6117a0565b005b60026020528060005260406000206000915090508060000154908060010160009054906101000a900473ffffffffffffffffffffffffffffffffffffffff16908060020180546103d1906122fa565b80601f01602080910402602001604051908101604052809291908181526020018280546103fd906122fa565b801561044a5780601f1061041f5761010080835404028352916020019161044a565b820191906000526020600020905b81548152906001019060200180831161042d57829003601f168201915b5050505050908060030154908060040154905085565b60005481565b60066020528060005260406000206000915090505481565b6060600083116104c3576040517f08c379a00000000000000000000000000000000000000000000000000000000081526004016104ba90612377565b60405180910390fd5b600082600054116104d55760006104e4565b826000546104e391906123c6565b5b905060008482116104f557816104f7565b845b905060008167ffffffffffffffff81111561051557610514612015565b5b60405190808252806020026020018201604052801561054e57816020015b61053b611a19565b8152602001906001900390816105335790505b5090506000808490505b838561056491906123c6565b8111156106ce57600260008281526020019081526020016000206040518060a0016040529081600082015481526020016001820160009054906101000a900473ffffffffffffffffffffffffffffffffffffffff1673ffffffffffffffffffffffffffffffffffffffff1673ffffffffffffffffffffffffffffffffffffffff1681526020016002820180546105f9906122fa565b80601f0160208091040260200160405190810160405280929190818152602001828054610625906122fa565b80156106725780601f1061064757610100808354040283529160200191610672565b820191906000526020600020905b81548152906001019060200180831161065557829003601f168201915b50505050508152602001600382015481526020016004820154815250508383815181106106a2576106a16123fa565b5b602002602001018190525081806106b890612429565b92505080806106c690612471565b915050610558565b508194505050505092915050565b60076020528060005260406000206000915090505481565b600160003373ffffffffffffffffffffffffffffffffffffffff1673ffffffffffffffffffffffffffffffffffffffff16815260200190815260200160002060030160009054906101000a900460ff16610783576040517f08c379a000000000000000000000000000000000000000000000000000000000815260040161077a906124e6565b60405180910390fd5b60008111801561079557506000548111155b6107d4576040517f08c379a00000000000000000000000000000000000000000000000000000000081526004016107cb90612552565b60405180910390fd5b6004600082815260200190815260200160002060003373ffffffffffffffffffffffffffffffffffffffff1673ffffffffffffffffffffffffffffffffffffffff16815260200190815260200160002060009054906101000a900460ff1615610872576040517f08c379a0000000000000000000000000000000000000000000000000000000008152600401610869906125be565b60405180910390fd5b60016004600083815260200190815260200160002060003373ffffffffffffffffffffffffffffffffffffffff1673ffffffffffffffffffffffffffffffffffffffff16815260200190815260200160002060006101000a81548160ff02191690831515021790555060026000828152602001908152602001600020600401600081548092919061090290612429565b91905055503373ffffffffffffffffffffffffffffffffffffffff16817fcf765d6f163c9b0d832e2a94f4c8e9bffd32a2c3ca5fdbb8cc67b5fe1441f41360405160405180910390a350565b6003602052816000526040600020818154811061096a57600080fd5b90600052602060002001600091509150505481565b6060600360008373ffffffffffffffffffffffffffffffffffffffff1673ffffffffffffffffffffffffffffffffffffffff168152602001908152602001600020805480602002602001604051908101604052809291908181526020018280548015610a0a57602002820191906000526020600020905b8154815260200190600101908083116109f6575b50505050509050919050565b600160003373ffffffffffffffffffffffffffffffffffffffff1673ffffffffffffffffffffffffffffffffffffffff16815260200190815260200160002060030160009054906101000a900460ff16610aa5576040517f08c379a0000000000000000000000000000000000000000000000000000000008152600401610a9c906124e6565b60405180910390fd5b3373ffffffffffffffffffffffffffffffffffffffff168173ffffffffffffffffffffffffffffffffffffffff1603610b13576040517f08c379a0000000000000000000000000000000000000000000000000000000008152600401610b0a9061262a565b60405180910390fd5b600160008273ffffffffffffffffffffffffffffffffffffffff1673ffffffffffffffffffffffffffffffffffffffff16815260200190815260200160002060030160009054906101000a900460ff16610ba2576040517f08c379a0000000000000000000000000000000000000000000000000000000008152600401610b9990612696565b60405180910390fd5b600560003373ffffffffffffffffffffffffffffffffffffffff1673ffffffffffffffffffffffffffffffffffffffff16815260200190815260200160002060008273ffffffffffffffffffffffffffffffffffffffff1673ffffffffffffffffffffffffffffffffffffffff16815260200190815260200160002060009054906101000a900460ff1615610c6c576040517f08c379a0000000000000000000000000000000000000000000000000000000008152600401610c6390612702565b60405180910390fd5b6001600560003373ffffffffffffffffffffffffffffffffffffffff1673ffffffffffffffffffffffffffffffffffffffff16815260200190815260200160002060008373ffffffffffffffffffffffffffffffffffffffff1673ffffffffffffffffffffffffffffffffffffffff16815260200190815260200160002060006101000a81548160ff021916908315150217905550600760003373ffffffffffffffffffffffffffffffffffffffff1673ffffffffffffffffffffffffffffffffffffffff1681526020019081526020016000206000815480929190610d5190612429565b9190505550600660008273ffffffffffffffffffffffffffffffffffffffff1673ffffffffffffffffffffffffffffffffffffffff1681526020019081526020016000206000815480929190610da690612429565b91905055508073ffffffffffffffffffffffffffffffffffffffff163373ffffffffffffffffffffffffffffffffffffffff167f30b3435b456f45779984ddfa456115ee4c20d9e446979b1b9e90dbb7e12b90b760405160405180910390a350565b6001602052806000526040600020600091509050806000018054610e2b906122fa565b80601f0160208091040260200160405190810160405280929190818152602001828054610e57906122fa565b8015610ea45780601f10610e7957610100808354040283529160200191610ea4565b820191906000526020600020905b815481529060010190602001808311610e8757829003601f168201915b505050505090806001018054610eb9906122fa565b80601f0160208091040260200160405190810160405280929190818152602001828054610ee5906122fa565b8015610f325780601f10610f0757610100808354040283529160200191610f32565b820191906000526020600020905b815481529060010190602001808311610f1557829003601f168201915b505050505090806002018054610f47906122fa565b80601f0160208091040260200160405190810160405280929190818152602001828054610f73906122fa565b8015610fc05780601f10610f9557610100808354040283529160200191610fc0565b820191906000526020600020905b815481529060010190602001808311610fa357829003601f168201915b5050505050908060030160009054906101000a900460ff16905084565b600160003373ffffffffffffffffffffffffffffffffffffffff1673ffffffffffffffffffffffffffffffffffffffff16815260200190815260200160002060030160009054906101000a900460ff1661106c576040517f08c379a0000000000000000000000000000000000000000000000000000000008152600401611063906124e6565b60405180910390fd5b60008081548092919061107e90612429565b91905055506040518060a0016040528060005481526020013373ffffffffffffffffffffffffffffffffffffffff168152602001828152602001428152602001600081525060026000805481526020019081526020016000206000820151816000015560208201518160010160006101000a81548173ffffffffffffffffffffffffffffffffffffffff021916908373ffffffffffffffffffffffffffffffffffffffff160217905550604082015181600201908161113d91906128ce565b506060820151816003015560808201518160040155905050600360003373ffffffffffffffffffffffffffffffffffffffff1673ffffffffffffffffffffffffffffffffffffffff16815260200190815260200160002060005490806001815401808255809150506001900390600052602060002001600090919091909150553373ffffffffffffffffffffffffffffffffffffffff166000547f8e40a51278abe2f4b410c0a96ff0bdd024b22666ca334062bf72afd596984bd68360405161120691906129a0565b60405180910390a350565b60046020528160005260406000206020528060005260406000206000915091509054906101000a900460ff1681565b60056020528160005260406000206020528060005260406000206000915091509054906101000a900460ff1681565b600160003373ffffffffffffffffffffffffffffffffffffffff1673ffffffffffffffffffffffffffffffffffffffff16815260200190815260200160002060030160009054906101000a900460ff16156112ff576040517f08c379a00000000000000000000000000000000000000000000000000000000081526004016112f690612a0e565b60405180910390fd5b604051806080016040528084815260200183815260200182815260200160011515815250600160003373ffffffffffffffffffffffffffffffffffffffff1673ffffffffffffffffffffffffffffffffffffffff168152602001908152602001600020600082015181600001908161137791906128ce565b50602082015181600101908161138d91906128ce565b5060408201518160020190816113a391906128ce565b5060608201518160030160006101000a81548160ff0219169083151502179055509050503373ffffffffffffffffffffffffffffffffffffffff167f48cac28ad4dc618e15f4c2dd5e97751182f166de97b25618318b2112aa951a2f8460405161140d91906129a0565b60405180910390a2505050565b600160003373ffffffffffffffffffffffffffffffffffffffff1673ffffffffffffffffffffffffffffffffffffffff16815260200190815260200160002060030160009054906101000a900460ff166114a9576040517f08c379a00000000000000000000000000000000000000000000000000000000081526004016114a0906124e6565b60405180910390fd5b600560003373ffffffffffffffffffffffffffffffffffffffff1673ffffffffffffffffffffffffffffffffffffffff16815260200190815260200160002060008273ffffffffffffffffffffffffffffffffffffffff1673ffffffffffffffffffffffffffffffffffffffff16815260200190815260200160002060009054906101000a900460ff16611572576040517f08c379a000000000000000000000000000000000000000000000000000000000815260040161156990612a7a565b60405180910390fd5b6000600560003373ffffffffffffffffffffffffffffffffffffffff1673ffffffffffffffffffffffffffffffffffffffff16815260200190815260200160002060008373ffffffffffffffffffffffffffffffffffffffff1673ffffffffffffffffffffffffffffffffffffffff16815260200190815260200160002060006101000a81548160ff0219169083151502179055506000600760003373ffffffffffffffffffffffffffffffffffffffff1673ffffffffffffffffffffffffffffffffffffffff1681526020019081526020016000205411156116a557600760003373ffffffffffffffffffffffffffffffffffffffff1673ffffffffffffffffffffffffffffffffffffffff168152602001908152602001600020600081548092919061169f90612471565b91905055505b6000600660008373ffffffffffffffffffffffffffffffffffffffff1673ffffffffffffffffffffffffffffffffffffffff16815260200190815260200160002054111561174357600660008273ffffffffffffffffffffffffffffffffffffffff1673ffffffffffffffffffffffffffffffffffffffff168152602001908152602001600020600081548092919061173d90612471565b91905055505b8073ffffffffffffffffffffffffffffffffffffffff163373ffffffffffffffffffffffffffffffffffffffff167fe7339343c6edff57f2d15278c419523844cea30ae5ee2146aa22cb9e3107dab760405160405180910390a350565b600160003373ffffffffffffffffffffffffffffffffffffffff1673ffffffffffffffffffffffffffffffffffffffff16815260200190815260200160002060030160009054906101000a900460ff1661182f576040517f08c379a0000000000000000000000000000000000000000000000000000000008152600401611826906124e6565b60405180910390fd5b60008111801561184157506000548111155b611880576040517f08c379a000000000000000000000000000000000000000000000000000000000815260040161187790612552565b60405180910390fd5b6004600082815260200190815260200160002060003373ffffffffffffffffffffffffffffffffffffffff1673ffffffffffffffffffffffffffffffffffffffff16815260200190815260200160002060009054906101000a900460ff1661191d576040517f08c379a000000000000000000000000000000000000000000000000000000000815260040161191490612ae6565b60405180910390fd5b60006004600083815260200190815260200160002060003373ffffffffffffffffffffffffffffffffffffffff1673ffffffffffffffffffffffffffffffffffffffff16815260200190815260200160002060006101000a81548160ff0219169083151502179055506000600260008381526020019081526020016000206004015411156119d2576002600082815260200190815260200160002060040160008154809291906119cc90612471565b91905055505b3373ffffffffffffffffffffffffffffffffffffffff16817f82092d1196022c48d901e5dc4b17451dbce942b8a9ded42fc6f2a4a5e8fd89b960405160405180910390a350565b6040518060a0016040528060008152602001600073ffffffffffffffffffffffffffffffffffffffff1681526020016060815260200160008152602001600081525090565b6000604051905090565b600080fd5b600080fd5b6000819050919050565b611a8581611a72565b8114611a9057600080fd5b50565b600081359050611aa281611a7c565b92915050565b600060208284031215611abe57611abd611a68565b5b6000611acc84828501611a93565b91505092915050565b611ade81611a72565b82525050565b600073ffffffffffffffffffffffffffffffffffffffff82169050919050565b6000611b0f82611ae4565b9050919050565b611b1f81611b04565b82525050565b600081519050919050565b600082825260208201905092915050565b60005b83811015611b5f578082015181840152602081019050611b44565b60008484015250505050565b6000601f19601f8301169050919050565b6000611b8782611b25565b611b918185611b30565b9350611ba1818560208601611b41565b611baa81611b6b565b840191505092915050565b600060a082019050611bca6000830188611ad5565b611bd76020830187611b16565b8181036040830152611be98186611b7c565b9050611bf86060830185611ad5565b611c056080830184611ad5565b9695505050505050565b6000602082019050611c246000830184611ad5565b92915050565b611c3381611b04565b8114611c3e57600080fd5b50565b600081359050611c5081611c2a565b92915050565b600060208284031215611c6c57611c6b611a68565b5b6000611c7a84828501611c41565b91505092915050565b60008060408385031215611c9a57611c99611a68565b5b6000611ca885828601611a93565b9250506020611cb985828601611a93565b9150509250929050565b600081519050919050565b600082825260208201905092915050565b6000819050602082019050919050565b611cf881611a72565b82525050565b611d0781611b04565b82525050565b600082825260208201905092915050565b6000611d2982611b25565b611d338185611d0d565b9350611d43818560208601611b41565b611d4c81611b6b565b840191505092915050565b600060a083016000830151611d6f6000860182611cef565b506020830151611d826020860182611cfe565b5060408301518482036040860152611d9a8282611d1e565b9150506060830151611daf6060860182611cef565b506080830151611dc26080860182611cef565b508091505092915050565b6000611dd98383611d57565b905092915050565b6000602082019050919050565b6000611df982611cc3565b611e038185611cce565b935083602082028501611e1585611cdf565b8060005b85811015611e515784840389528151611e328582611dcd565b9450611e3d83611de1565b925060208a01995050600181019050611e19565b50829750879550505050505092915050565b60006020820190508181036000830152611e7d8184611dee565b905092915050565b60008060408385031215611e9c57611e9b611a68565b5b6000611eaa85828601611c41565b9250506020611ebb85828601611a93565b9150509250929050565b600081519050919050565b600082825260208201905092915050565b6000819050602082019050919050565b6000611efd8383611cef565b60208301905092915050565b6000602082019050919050565b6000611f2182611ec5565b611f2b8185611ed0565b9350611f3683611ee1565b8060005b83811015611f67578151611f4e8882611ef1565b9750611f5983611f09565b925050600181019050611f3a565b5085935050505092915050565b60006020820190508181036000830152611f8e8184611f16565b905092915050565b60008115159050919050565b611fab81611f96565b82525050565b60006080820190508181036000830152611fcb8187611b7c565b90508181036020830152611fdf8186611b7c565b90508181036040830152611ff38185611b7c565b90506120026060830184611fa2565b95945050505050565b600080fd5b600080fd5b7f4e487b7100000000000000000000000000000000000000000000000000000000600052604160045260246000fd5b61204d82611b6b565b810181811067ffffffffffffffff8211171561206c5761206b612015565b5b80604052505050565b600061207f611a5e565b905061208b8282612044565b919050565b600067ffffffffffffffff8211156120ab576120aa612015565b5b6120b482611b6b565b9050602081019050919050565b82818337600083830152505050565b60006120e36120de84612090565b612075565b9050828152602081018484840111156120ff576120fe612010565b5b61210a8482856120c1565b509392505050565b600082601f8301126121275761212661200b565b5b81356121378482602086016120d0565b91505092915050565b60006020828403121561215657612155611a68565b5b600082013567ffffffffffffffff81111561217457612173611a6d565b5b61218084828501612112565b91505092915050565b600080604083850312156121a05761219f611a68565b5b60006121ae85828601611a93565b92505060206121bf85828601611c41565b9150509250929050565b60006020820190506121de6000830184611fa2565b92915050565b600080604083850312156121fb576121fa611a68565b5b600061220985828601611c41565b925050602061221a85828601611c41565b9150509250929050565b60008060006060848603121561223d5761223c611a68565b5b600084013567ffffffffffffffff81111561225b5761225a611a6d565b5b61226786828701612112565b935050602084013567ffffffffffffffff81111561228857612287611a6d565b5b61229486828701612112565b925050604084013567ffffffffffffffff8111156122b5576122b4611a6d565b5b6122c186828701612112565b9150509250925092565b7f4e487b7100000000000000000000000000000000000000000000000000000000600052602260045260246000fd5b6000600282049050600182168061231257607f821691505b602082108103612325576123246122cb565b5b50919050565b7f436f756e74206d757374206265203e2030000000000000000000000000000000600082015250565b6000612361601183611b30565b915061236c8261232b565b602082019050919050565b6000602082019050818103600083015261239081612354565b9050919050565b7f4e487b7100000000000000000000000000000000000000000000000000000000600052601160045260246000fd5b60006123d182611a72565b91506123dc83611a72565b92508282039050818111156123f4576123f3612397565b5b92915050565b7f4e487b7100000000000000000000000000000000000000000000000000000000600052603260045260246000fd5b600061243482611a72565b91507fffffffffffffffffffffffffffffffffffffffffffffffffffffffffffffffff820361246657612465612397565b5b600182019050919050565b600061247c82611a72565b91506000820361248f5761248e612397565b5b600182039050919050565b7f55736572206e6f74207265676973746572656400000000000000000000000000600082015250565b60006124d0601383611b30565b91506124db8261249a565b602082019050919050565b600060208201905081810360008301526124ff816124c3565b9050919050565b7f506f737420646f6573206e6f7420657869737400000000000000000000000000600082015250565b600061253c601383611b30565b915061254782612506565b602082019050919050565b6000602082019050818103600083015261256b8161252f565b9050919050565b7f416c7265616479206c696b656400000000000000000000000000000000000000600082015250565b60006125a8600d83611b30565b91506125b382612572565b602082019050919050565b600060208201905081810360008301526125d78161259b565b9050919050565b7f43616e6e6f7420666f6c6c6f7720796f757273656c6600000000000000000000600082015250565b6000612614601683611b30565b915061261f826125de565b602082019050919050565b6000602082019050818103600083015261264381612607565b9050919050565b7f5461726765742075736572206e6f742072656769737465726564000000000000600082015250565b6000612680601a83611b30565b915061268b8261264a565b602082019050919050565b600060208201905081810360008301526126af81612673565b9050919050565b7f416c726561647920666f6c6c6f77696e67000000000000000000000000000000600082015250565b60006126ec601183611b30565b91506126f7826126b6565b602082019050919050565b6000602082019050818103600083015261271b816126df565b9050919050565b60008190508160005260206000209050919050565b60006020601f8301049050919050565b600082821b905092915050565b6000600883026127847fffffffffffffffffffffffffffffffffffffffffffffffffffffffffffffffff82612747565b61278e8683612747565b95508019841693508086168417925050509392505050565b6000819050919050565b60006127cb6127c66127c184611a72565b6127a6565b611a72565b9050919050565b6000819050919050565b6127e5836127b0565b6127f96127f1826127d2565b848454612754565b825550505050565b600090565b61280e612801565b6128198184846127dc565b505050565b5b8181101561283d57612832600082612806565b60018101905061281f565b5050565b601f8211156128825761285381612722565b61285c84612737565b8101602085101561286b578190505b61287f61287785612737565b83018261281e565b50505b505050565b600082821c905092915050565b60006128a560001984600802612887565b1980831691505092915050565b60006128be8383612894565b9150826002028217905092915050565b6128d782611b25565b67ffffffffffffffff8111156128f0576128ef612015565b5b6128fa82546122fa565b612905828285612841565b600060209050601f8311600181146129385760008415612926578287015190505b61293085826128b2565b865550612998565b601f19841661294686612722565b60005b8281101561296e57848901518255600182019150602085019450602081019050612949565b8683101561298b5784890151612987601f891682612894565b8355505b6001600288020188555050505b505050505050565b600060208201905081810360008301526129ba8184611b7c565b905092915050565b7f5573657220616c72656164792072656769737465726564000000000000000000600082015250565b60006129f8601783611b30565b9150612a03826129c2565b602082019050919050565b60006020820190508181036000830152612a27816129eb565b9050919050565b7f4e6f7420666f6c6c6f77696e6700000000000000000000000000000000000000600082015250565b6000612a64600d83611b30565b9150612a6f82612a2e565b602082019050919050565b60006020820190508181036000830152612a9381612a57565b9050919050565b7f4e6f74206c696b65642079657400000000000000000000000000000000000000600082015250565b6000612ad0600d83611b30565b9150612adb82612a9a565b602082019050919050565b60006020820190508181036000830152612aff81612ac3565b905091905056fea2646970667358221220ece34fd97ecefdfc0982ac379eb813c79c99b0004387cfc799ac91cc5307e62064736f6c634300081c0033",
  "linkReferences": {},
  "deployedLinkReferences": {}
}